:1000000071C000008EC000008CC000008AC00000DB
:1000100088C0000086C0000084C0000082C00000CC
:1000200080C000007EC000007CC000007AC00000DC
:1000300078C0000076C0000074C0000072C00000EC
:1000400070C000001AC300006CC000006AC000004D
:1000500068C0000066C0000064C0000062C000000C
:1000600060C000005EC000005CC000005AC000001C
:1000700058C0000056C0000054C0000052C000002C
:1000800050C000004EC000004CC000004AC000003C
:1000900048C0000046C0000044C0000042C000004C
:1000A00040C000003EC000003CC000003AC000005C
:1000B00038C0000036C0000034C0000032C000006C
:1000C00030C000002EC000002CC000002AC000007C
:1000D00028C0000026C0000024C0000022C000008C
:1000E00020C0000011241FBECFEFD1E2DEBFCDBF84
:1000F00000E00CBF12E0A0E0B2E0E8E2F7E000E0D0
:100100000BBF02C007900D92A432B107D9F726E0C9
:10011000A4E2B2E001C01D92A934B207E1F783D195
:1001200001C36ECFF8942F923F924F925F926F92DD
:100130007F928F929F92AF92BF92CF92DF92EF9277
:10014000FF920F931F93CF93DF93EDB6FEB63091DE
:100150002802330F330F92E089E2831FE82FF92F33
:10016000E192F082CED09BD230912802330F330F30
:1001700089E292E0831FE82FF92F819190818DBF52
:100180009EBFDF91CF911F910F91FF90EF90DF9075
:10019000CF90BF90AF909F908F907F906F905F9027
:1001A0004F903F902F9078940895F894ADB7BEB7D4
:1001B0008DBF9EBF2F923F924F925F926F927F9220
:1001C0008F929F92AF92BF92CF92DF92EF92FF9267
:1001D0000F931F93CF93DF93ADBFBEBF7894089565
:1001E000F894ADB7BEB78DBF9EBFDF91CF911F9181
:1001F0000F91FF90EF90DF90CF90BF90AF909F90C6
:100200008F907F906F905F904F903F902F90789459
:100210000895CF93DF931F921F92CDB7DEB71A8256
:10022000198213C089819A81880F991F8C5E9D4F16
:10023000FC0180819181875B9D4F2AEAFC0120832C
:1002400089819A8101969A83898389819A81089705
:100250004CF30F900F90DF91CF910895CF93DF93E0
:1002600000D01F92CDB7DEB71C821B821A82198282
:100270003CC089819A81880F991F8C5E9D4FFC013B
:100280002081318189819A81880F991F8C5F9D4FD0
:10029000FC0180819181820F931F01979C838B8346
:1002A0008B819C819C01275B3D4F89819A81880FBE
:1002B000991F880F991F855D9D4FFC013183208315
:1002C0008B819C819C01275B3D4F89819A81880F9E
:1002D000991F880F991F875D9D4FFC0131832083F3
:1002E00089819A8101969A83898389819A81089765
:1002F0000CF4BFCF0F900F900F900F90DF91CF9124
:100300000895CF93DF931F921F92CDB7DEB71A8265
:10031000198215C089819A81880F991F8C5E9D4F23
:10032000FC0180819181875B9D4FFC0180818A3A2D
:1003300009F00ED089819A8101969A8389838981F7
:100340009A8108973CF30F900F90DF91CF91089519
:10035000CF93DF93CDB7DEB7FFCFCF93DF931F925D
:100360001F92CDB7DEB7F89454DF78DF84E490E0D5
:10037000FC01108285E490E0FC01108288E890E0A6
:100380002AEF30E0FC013183208385E490E025E40E
:1003900030E0F90120812160FC01208385E490E0B8
:1003A00025E430E0F90120812260FC0120838EE603
:1003B00090E02EE630E0F90120812260FC012083EC
:1003C0008DE590E0FC01808191812FEF31E2A90160
:1003D000481B590BCA019A83898320912B023091C3
:1003E0002C028DE590E0FC0180819181FC018981E6
:1003F0009A81AC01B901CF01BBD08DE590E040916D
:10040000290250912A0229813A8131952195310999
:10041000240F351FFC013183208378940F900F90B7
:10042000DF91CF910895CF93DF931F921F92CDB7A5
:10043000DEB71A82198291DF41E06DE272E081E05D
:100440001BD041E06DE272E080E016D089819A8194
:1004500001969A83898366DEF9CFCF93DF931F924B
:100460001F92CDB7DEB71A82198289819A810196CF
:100470009A83898357DEF9CFCF93DF93CDB7DEB769
:100480002A970FB6F894DEBF0FBECDBF8F83798752
:1004900068874A87888599859D838C838F81882F7B
:1004A00090E0880F991F880F991F855D9D4FFC0173
:1004B000808191819A8389832C8189819A81FC0131
:1004C000208389819A8101979A8389832D818981EB
:1004D0009A81FC01208389819A8101979A8389837B
:1004E0002E8189819A81FC01208389819A810197DB
:1004F0009A83898389819A8142979A8389838F819C
:10050000882F90E0880F991F880F991F875D9D4F56
:1005100029813A81FC01318320838F81282F30E0AB
:1005200081E090E002C0880F991F2A95E2F780953C
:100530008B838A85882369F08B81282F30E0809116
:1005400000029091010282239323909301028093F1
:100550000002809128029F81981709F4A0D02A9662
:100560000FB6F894DEBF0FBECDBFDF91CF910895D7
:10057000CF93DF93CDB7DEB760970FB6F894DEBFA9
:100580000FBECDBF9C878B877E876D87588B4F872B
:100590002DB73EB78DB79EB7BC018B859C859A83DE
:1005A00089838F859889AC014150510958874F83C1
:1005B0004DB75EB7481B590B0FB6F8945EBF0FBE20
:1005C0004DBF8DB79EB701969A8789871C821B8283
:1005D00016C089819A8101969A83898389819A813B
:1005E000DC01EC9149855A858B819C81840F951F94
:1005F000DC01EC938B819C8101969C838B834B81E6
:100600005C818F859889481759071CF38D859E85D5
:100610009A8389838F85988901979E838D8316C0DD
:1006200049855A858D819E81840F951FFC014081EB
:1006300089819A81DC014C9389819A8101979A83FF
:1006400089838D819E8101979E838D838D819E817B
:10065000992334F70FB6F8947EBF0FBE6DBF0FB667
:10066000F8943EBF0FBE2DBF60960FB6F894DEBF64
:100670000FBECDBFDF91CF9108951F920F920090D2
:100680005F000F921124CF93DF93CDB7DEB7DF91D8
:10069000CF910F9000925F000F901F901895CF930D
:1006A000DF931F921F92CDB7DEB71A828091280286
:1006B0008F5F89838981282F30E081E090E002C03C
:1006C000880F991F2A95E2F7909303028093020204
:1006D0002091000230910102809124029091250224
:1006E000282B392B8091260290912702822B932B65
:1006F0009C01209530958091020290910302822303
:100700009323892B31F081E08A83898180932802A9
:100710002BDD8981873020F489818F5F898301C037
:080720001982C8CFF894FFCF45
:10072800FE000100800080008000800080008000C2
:10073800800080000000800000018001000280022B
:040748000003800327
:00000001FF
