:1000000071C000008EC000008CC000008AC00000DB
:1000100088C0000086C0000084C0000082C00000CC
:1000200080C000007EC000007CC000007AC00000DC
:1000300078C0000076C0000074C0000072C00000EC
:1000400070C000006EC000006CC000006AC00000FC
:1000500068C00000CBC1000064C0000062C00000A6
:1000600060C000005EC000005CC000005AC000001C
:1000700058C0000056C0000054C0000052C000002C
:1000800050C000004EC000004CC000004AC000003C
:1000900048C0000046C0000044C0000042C000004C
:1000A00040C000003EC000003CC000003AC000005C
:1000B00038C0000036C0000034C0000032C000006C
:1000C00030C000002EC000002CC000002AC000007C
:1000D00028C0000026C0000024C0000022C000008C
:1000E00020C0000011241FBECFEFD1E2DEBFCDBF84
:1000F00000E00CBF12E0A0E0B2E0ECE8F5E000E0C8
:100100000BBF02C007900D92A432B107D9F726E0C9
:10011000A4E2B2E001C01D92A935B207E1F71FD2F7
:1001200033C26ECFF8942F923F924F925F926F92AC
:100130007F928F929F92AF92BF92CF92DF92EF9277
:10014000FF920F931F93CF93DF93EDB6FEB63091DE
:100150005406330F330F96E084E3831FE82FF92F03
:10016000E192F082789482D097D1F894309154063D
:10017000330F330F84E396E0831FE82FF92F81912B
:1001800090818DBF9EBFDF91CF911F910F91FF9006
:10019000EF90DF90CF90BF90AF909F908F907F9027
:1001A0006F905F904F903F902F9078940895F894BF
:1001B000ADB7BEB78DBF9EBF2F923F924F925F9259
:1001C0006F927F928F929F92AF92BF92CF92DF9267
:1001D000EF92FF920F931F93CF93DF93ADBFBEBFFC
:1001E00078940895F894ADB7BEB78DBF9EBFDF91E8
:1001F000CF911F910F91FF90EF90DF90CF90BF9024
:10020000AF909F908F907F906F905F904F903F90B6
:100210002F9078940895A0E0B2E020E132E08AEADD
:10022000ED91FD91EC5CFD4F8083A217B307C1F700
:100230000895CF93DF93A0E0B2E0C0E1D2E0E4E321
:10024000F6E040E152E02D913D9189919991820F24
:10025000931F8D5C9D4F938382839183808334961B
:10026000A417B50781F7DF91CF910895E0910002BF
:10027000F0910102EC5CFD4F80818A3A59F4A2E0D2
:10028000B2E020E132E0ED91FD91EC5CFD4F808128
:100290008A3A09F0FFCFA217B307A9F708953FB72D
:1002A000F89420915406E22FF0E0EE0FFF1FEC5D72
:1002B000FD4F9183808381E090E002C0880F991FF9
:1002C0002A95E2F74091550650915606842B952BBE
:1002D00090935606809355063FBF24CF089580EC37
:1002E00080BB81B3805881BB8CED95E0D8DFF9CF1E
:1002F00080EC80BBC0E481B38C2781BB84EF91E0AC
:10030000CEDFF9CFEF92FF920F931F93CF93DF933E
:10031000CDB7DEB72DB73EB7EDB7FEB7E41BF50B93
:100320000FB6F894FEBF0FBEEDBF0DB71EB70F5F3F
:100330001F4F141615065CF4DC011196F8017801C4
:10034000E40EF51E8D918193EE15FF05D9F7CA01D4
:1003500001975AF0F801E40FF51FDB011196A8018F
:1003600082918E93E417F507D9F70FB6F8943EBF44
:100370000FBE2DBFDF91CF911F910F91FF90EF9096
:1003800008950F931F93CF93DF93F89444DF51DFC9
:1003900014BC15BC8AEF87BD85B5886085BD85B561
:1003A000816085BD85B5826085BDEEE6F0E0808127
:1003B000826080838DB79EB7CFEFD1E2C81BD90B87
:1003C0008DB79EB704E316E0F80162817381AE0138
:1003D00099DFF801808191818C1B9D0B9EBF8DBFA1
:1003E0007894DF91CF911F910F9108951F920F92F2
:1003F0000FB60F9211240BB60F922F933F934F938A
:100400005F936F938F939F93EF93FF9380E090E0C0
:1004100041E050E0FC01EE0FFF1FEC5DFD4F20813D
:100420003181232B29F1FC01EE0FFF1FEC5DFD4F05
:100430002081318121503109318320832081318114
:10044000232BB1F46FB7F8949A01082E02C0220F43
:10045000331F0A94E2F7209530E0E0915506F091C1
:1004600056062E233F2330935606209355066FBF22
:1004700001968830910571F6FF91EF919F918F91D0
:100480006F915F914F913F912F910F900BBE0F9005
:100490000FBE0F901F901895109154061F5FC1E07A
:1004A000D0E000E001C0102FAE01012E02C0440FC9
:1004B000551F0A94E2F75093210240932002809145
:1004C0005706909158062091220230912302822BE8
:1004D000932B2091550630915606822B932B8095B5
:1004E000909584239523892B19F0109354063DDEB3
:1004F0001730C8F61F5FD8CFCF93DF93E82FF0E017
:10050000EE0FFF1FEE0FFF1FEC5CF94FA281B381CE
:100510006C93ED0121977883219718825597B183C9
:10052000A0834423A1F021E030E0082E02C0220F76
:10053000331F0A94E2F7209530E040912202509157
:100540002302242335233093230220932202909107
:100550005406891301C0A0DFDF91CF910895CF9396
:10056000DF931F921F92CDB7DEB71A82198209DF7F
:1005700041E068E771E081E0BFDF41E06FE671E0F4
:0C05800080E0BADFCFDDFECFF894FFCFA3
:10058C000000800000018001000280020003800353
:10059C00800080008000800080008000800080004F
:0405AC000100FE004C
:00000001FF
