:1000000071C000008EC000008CC000008AC00000DB
:1000100088C0000086C0000084C0000082C00000CC
:1000200080C000007EC000007CC000007AC00000DC
:1000300078C0000076C0000074C0000072C00000EC
:1000400070C0000007C200006CC000006AC0000061
:1000500068C0000066C0000064C0000062C000000C
:1000600060C000005EC000005CC000005AC000001C
:1000700058C0000056C0000054C0000052C000002C
:1000800050C000004EC000004CC000004AC000003C
:1000900048C0000046C0000044C0000042C000004C
:1000A00040C000003EC000003CC000003AC000005C
:1000B00038C0000036C0000034C0000032C000006C
:1000C00030C000002EC000002CC000002AC000007C
:1000D00028C0000026C0000024C0000022C000008C
:1000E00020C0000011241FBECFEFD1E2DEBFCDBF84
:1000F00000E00CBF12E0A0E0B2E0ECE7F4E000E0CA
:100100000BBF02C007900D92A832B107D9F726E0C5
:10011000A8E2B2E001C01D92A834B207E1F7B7D05F
:10012000ABC16ECFCF93DF93CDB7DEB78AEA8093B2
:1001300048028AEA8093C8028AEA809348038AEADE
:100140008093C8038AEA809348048AEA8093C804AB
:100150008AEA809348058AEA8093C805DF91CF91A7
:100160000895CF93DF9300D01F92CDB7DEB71C82E6
:100170001B821A8219823DC089819A81880F991F3A
:10018000805F9D4FFC012081318189819A81880F98
:10019000991F80509E4FFC0180819181820F931F97
:1001A00001979C838B838B819C819C01285B3D4FB5
:1001B00089819A81880F991F880F991F865D9D4FAD
:1001C000FC01318320838B819C8145979C01285BB6
:1001D0003D4F89819A81880F991F880F991F885DEB
:1001E0009D4FFC013183208389819A8101969A83F6
:1001F000898389819A8108970CF4BECF0F900F9064
:100200000F900F90DF91CF910895CF93DF93CDB7EB
:10021000DEB7F89487DFA5DF84E490E0FC0110826C
:1002200085E490E0FC01108288E890E02AEF30E05D
:10023000FC013183208385E490E025E430E0F9017E
:1002400020812160FC01208385E490E025E430E0FA
:10025000F90120812260FC0120838EE690E02EE6E9
:1002600030E0F90120812260FC01208320912A02E4
:1002700030912B028DE590E0FC018081918143E07B
:1002800050E0B90112D07894DF91CF910895CF93C7
:10029000DF93CDB7DEB726E030E043E350E060E027
:1002A00070E080E087D0B1DFFFCFCF93DF93CDB791
:1002B000DEB760970FB6F894DEBF0FBECDBF9C8748
:1002C0008B877E876D87588B4F872DB73EB78DB74D
:1002D0009EB7BC018B859C859A8389838F8598897D
:1002E000AC014150510958874F834DB75EB7481B49
:1002F000590B0FB6F8945EBF0FBE4DBF8DB79EB7BA
:1003000001969A8789871C821B8216C089819A81EF
:10031000DC01EC9149855A858B819C81840F951F66
:10032000DC01EC9389819A8101969A8389838B8180
:100330009C8101969C838B834B815C818F859889FE
:10034000481759071CF38D859E859A8389838F856D
:10035000988901979E838D8316C049855A858D8122
:100360009E81840F951FFC01408189819A81DC0167
:100370004C9389819A8101979A8389838D819E818B
:1003800001979E838D838D819E81992334F70FB6CB
:10039000F8947EBF0FBE6DBF0FB6F8943EBF0FBE80
:1003A0002DBF60960FB6F894DEBF0FBECDBFDF91B4
:1003B000CF910895CF93DF93CDB7DEB727970FB6D0
:1003C000F894DEBF0FBECDBF89834A835B836C8305
:1003D0007D833F832E838981882F90E0880F991F2A
:1003E000805E9D4FFC018081918120E2FC01208391
:1003F0008981882F90E0880F991F805E9D4FFC01B6
:100400008081918128E1FC0121838981882F90E0FE
:10041000880F991F805E9D4FFC01808191812E8104
:10042000FC0122838981882F90E0880F991F805ECC
:100430009D4FFC01808191812A813B81FC013583A4
:10044000248327960FB6F894DEBF0FBECDBFDF9191
:10045000CF9108951F920F9200905F000F92112488
:10046000CF93DF93CDB7DEB7DF91CF910F9000929E
:0C0470005F000F901F901895F894FFCFCC
:10047C008000800080008000800080008000800070
:10048C000000800000018001000280020003800354
:08049C00C000C800D0003001CF
:00000001FF
