:1000000071C000008EC000008CC000008AC00000DB
:1000100088C0000086C0000084C0000082C00000CC
:1000200080C000007EC000007CC000007AC00000DC
:1000300078C0000076C0000074C0000072C00000EC
:1000400070C0000011C100006CC000006AC0000058
:1000500068C0000066C0000064C0000062C000000C
:1000600060C000005EC000005CC000005AC000001C
:1000700058C0000056C0000054C0000052C000002C
:1000800050C000004EC000004CC000004AC000003C
:1000900048C0000046C0000044C0000042C000004C
:1000A00040C000003EC000003CC000003AC000005C
:1000B00038C0000036C0000034C0000032C000006C
:1000C00030C000002EC000002CC000002AC000007C
:1000D00028C0000026C0000024C0000022C000008C
:1000E00020C0000011241FBECFEFD1E2DEBFCDBF84
:1000F00000E00CBF12E0A0E0B2E0E0E8F2E000E0D7
:100100000BBF02C007900D92A032B107D9F726E0CD
:10011000A0E2B2E001C01D92A034B207E1F7A2D084
:10012000ADC06ECFA0E0B2E020E132E08AEAED910E
:10013000FD91E05EFD4F8083A217B307C1F70895DC
:10014000CF93DF93A0E0B2E0C0E1D2E0E0E2F6E0DE
:1001500040E152E02D913D9189919991820F931F39
:10016000815E9D4F93838283918380833496A4170D
:10017000B50781F7DF91CF910895EF92FF920F932A
:100180001F93CF93DF93CDB7DEB72DB73EB7EDB753
:10019000FEB7E41BF50B0FB6F894FEBF0FBEEDBF24
:1001A0000DB71EB70F5F1F4F141615065CF4DC0168
:1001B0001196F8017801E40EF51E8D918193EE15EC
:1001C000FF05D9F7CA0101975AF0F801E40FF51FAE
:1001D000DB011196A80182918E93E417F507D9F7F8
:1001E0000FB6F8943EBF0FBE2DBFDF91CF911F9188
:1001F0000F91FF90EF9008950F931F93CF93DF938C
:10020000F89490DF9DDF14BC15BC8AEF90E09093CA
:1002100089008093880085B5816085BD85B5826041
:1002200085BDEEE6F0E08081826080838DB79EB769
:10023000CFEFD1E2C81BD90B8DB79EB700E216E015
:10024000F80162817381AE0198DFF80180819181AC
:100250008C1B9D0B9EBF8DBF7894DF91CF911F911A
:100260000F910895C9DFFFCF1F920F920FB60F9223
:1002700011240F900FBE0F901F901895F894FFCF88
:100280000000800000018001000280020003800362
:10029000800080008000800080008000800080005E
:00000001FF
