:1000000071C000008EC000008CC000008AC00000DB
:1000100088C0000086C0000084C0000082C00000CC
:1000200080C000007EC000007CC000007AC00000DC
:1000300078C0000076C0000074C0000072C00000EC
:1000400070C000006EC000006CC000006AC00000FC
:1000500068C0000066C0000064C0000062C000000C
:1000600060C000005EC000005CC000005AC000001C
:1000700058C0000056C0000054C0000052C000002C
:1000800050C000004EC000004CC000004AC000003C
:1000900048C0000046C0000044C0000042C000004C
:1000A00040C000003EC000003CC000003AC000005C
:1000B00038C0000036C0000034C0000032C000006C
:1000C00030C000002EC000002CC000002AC000007C
:1000D00028C0000026C0000024C0000022C000008C
:1000E00020C0000011241FBECFEFD1E2DEBFCDBF84
:1000F00000E00CBF12E0A0E0B2E0E6E8F3E000E0D0
:100100000BBF02C007900D92AC30B107D9F722E0C7
:10011000ACE0B2E001C01D92A031B207E1F7F0D02F
:1001200030C16ECF85B1805885B92FEF89E698E14F
:10013000215080409040E1F700C0000008958FB149
:10014000082E000C990B80959095892F881F882781
:10015000881F90E008958FB182958695869583706B
:1001600091E08927817090E00895CF93DF93EC01AF
:10017000E6DF892B19F4EFDF892BD1F3E0DF892B40
:1001800031F0DDDF892BE9F71982188207C0E3DF40
:10019000892BE9F781E090E09983888381E090E002
:1001A000DF91CF9108957F9906C07F9BFECFFC0120
:1001B0001182108208957E99F6CF7E9BFECF21E0BA
:1001C00030E0FC01318320830895EF92FF920F937A
:1001D0001F93CF93DF93161617065CF48B017C01F7
:1001E000C0E0D0E0B801C701DEDF2196C017D1071B
:1001F000C9F7DF91CF911F910F91FF90EF90089574
:10020000CF92DF92EF92FF920F931F93CF93DF93E2
:100210007C01C12CD12C0C2D1D2D81E090E082DFC2
:1002200091B3C1E0D0E0002E02C0CC0FDD1F0A94D4
:10023000E2F79C2791BB66ED71E0C701C6DF8091B4
:100240000C0290910D02892B21F081B3807C81BB3F
:1002500009C081B3C827C1BB0F5F1F4F0430110510
:10026000E1F6D9CFDF91CF911F910F91FF90EF90E1
:10027000DF90CF900895EF92FF920F931F93CF934B
:10028000DF93EC01EE24E3946894FF24F1F804E09A
:1002900018E091B39E2591BB91B39F2591BB91B37B
:1002A000902791BB91B3912791BB6BEE70E0CE018B
:1002B0008CDF80910C0290910D02892B21F081B38B
:1002C000807C81BB16C081B38E2581BB81B38F2515
:1002D00081BB81B3802781BB81B3812781BB2FEF95
:1002E00083ED90E3215080409040E1F700C0000092
:1002F000D0CFDF91CF911F910F91FF90EF90089594
:10030000CF93DF931F921F92CDB7DEB78FE380BBF1
:1003100080EC81BB1A82198280E884B92FEF83EDCB
:1003200090E3215080409040E1F700C00000CE01F2
:1003300001961BDFE0910E02F0910F02EE0FFF1FFE
:1003400089819A81E80FF91FEE0FFF1FE050FE4FE1
:100350008081918190930F0280930E0210920D0282
:1003600010920C02009719F38130910521F4CE010F
:10037000019646DFDCCF0297D1F6CE0101967BDFF6
:06038000D6CFF894FFCF78
:0C03860001000200000002000100000065
:00000001FF
